:10000000C2EF03F00000000000EF00F0000000006D
:0A0010000000000000000000F3D71C
:06001C00000000001200CC
:100022000F0E0C6E470E0D6E0D2EFED70C2EFCD74A
:06003200000000001200B6
:0A003800210E0D6E0D2EFED71200F2
:1000420028BE02D0819601D0818628BC02D081943C
:1000520001D0818428BA02D0819201D0818228B84D
:1000620002D0819001D0818017B202D0818801D064
:100072008198818AD2DF819A28B602D0819601D0F6
:10008200818628B402D0819401D0818428B202D022
:10009200819201D0818228B002D0819001D08180EA
:1000A20017B202D0818801D08198818AB6DF819A05
:0C00B20017A202D0B5DF01D0BEDF1200A3
:1000BE000FEE82F0EF50EFCF00F0009600C0EFFF92
:0200CE0012001E
:1000D0000FEE82F0EF50EFCF00F0009800C0EFFF7E
:0200E00012000C
:0C00E200179227C028F0ACDF1782120034
:1000EE00010E236E800E246E000E256E000E251856
:1000FE0002E1000E24182EE08ADF89DF88DF87DF19
:10010E00D7DF949684DF83DF24502214016E000E15
:10011E002514026E000E021802E1000E011802E014
:10012E00948802D0CEDF949872DF71DF9486179098
:10013E0082B604D017A001D001D0FAD724C000F0A7
:10014E0025C001F001320032019E00C024F001C032
:10015E0025F0CCD7236A5BDF5ADFAADF949657DFF0
:10016E0056DF948854DF53DF52DF51DF94861790A9
:10017E0082B604D017A001D001D0FAD7236A47DF88
:10018E0046DF82B8238043DF42DF41DF40DF3FDFBF
:10019E003EDF3DDF3CDF3BDF3ADF39DF38DF37DF85
:1001AE0036DF35DF34DF84DF94968BDF949823C0FF
:0401BE0000F012003B
:1001C20086DF94982ADF29DF9486179082B604D0BE
:1001D20017A001D001D0FAD720DF1FDF1EDF1DDFFD
:1001E2001CDF1BDF1ADF19DF948817DF16DF12000E
:1001F200086A080E0C6E003408360450085ED8B047
:0E02020002D00826D89000360C2EF5D7120038
:10021000948804DF03DF948601DF00DF59DF9498C0
:0A022000FDDEFCDE4CDF94961200B8
:10022A002250010A03E1800E226E14D02250020AE3
:10023A0003E1C00E226E0ED02250030A03E1940E8F
:10024A00226E08D02250040A03E1D40E226E02D094
:10025A00800E226E2304006E2250002600C022F077
:10026A00178200C028F0E8DE179224C028F0E4DEE6
:04027A0017821200D5
:10027E002250010A03E1800E226E14D02250020A8F
:10028E0003E1C00E226E0ED02250030A03E1940E3B
:10029E00226E08D02250040A03E1D40E226E02D040
:1002AE00800E226E2304006E2250002600C022F023
:1002BE0000C028F0BFDE1792266A26502424E96E6D
:1002CE00000E2520EA6EEE50000A0BE02650242484
:1002DE00E96E000E2520EA6EEECF27F0FBDE262A11
:0602EE00ECD7178212009C
:1002F40094889486179082B604D017A001D001D0B8
:04030400FAD7120012
:10030800246A800E256E000E266E000E261802E165
:10031800000E251819E07EDE7DDE94887BDE7ADE0D
:100328009486179082B604D017A001D001D0FAD7CE
:1003380082A802D0255024126DDE6CDEBCDE9496B5
:1003480026322532269EE1D7948864DE63DE000ECD
:10035800231802E1000E221802E0B6DE94985ADE55
:1003680059DE9486179082B604D017A001D001D028
:10037800FAD750DE4FDE9FDE94964CDE4BDEA4DECD
:08038800949824C000F012005B
:10039000939A93989390939293949396819A819839
:1003A00081968194819281903CDE3BDE3ADE8182AF
:1003B0008180818A33DE819A34DE818A2FDE819AC0
:1003C00030DE818A2BDE819A2CDE8190818A26DEC6
:1003D000819A27DE818A22DE819A81928186818AB2
:1003E0001DDE819A1EDE81968180818A17DE819AC8
:1003F0008190818A13DE819A14DE818A0FDE819AD0
:100400008180818A0BDE819A0CDE8190818A06DEF2
:10041000819A8186818481828180818AFFDD819AAF
:0604200000DE178212004D
:10042600936AFF0E816EFF0E936EFF0EC16EFF0E76
:10043600B46E5DDFAADF010E286E00DE0C0E286E9C
:10044600FDDD010E226E010E236E440E1C6E610E42
:100456001D6E740E1E6E650E1F6E3A0E206E216A9C
:100466001C0E246E000E256E07DF010E226E080E8E
:10047600236E2E0E246ED6DE010E226E0B0E236E1A
:100486002E0E246ECFDE010E226E100E236E2E0E61
:10049600246EC8DE020E226E010E236E540E1C6EF2
:1004A600690E1D6E6D0E1E6E650E1F6E3A0E206E67
:1004B600216A1C0E246E000E256EDEDE020E226EF2
:1004C600080E236E3A0E246EADDE020E226E0B0E61
:1004D600236E3A0E246EA6DE010E226E0C0E236EDD
:1004E600320E1C6E300E1D6E310E1E6E1F6A1C0EF5
:0A04F600246E000E256EC0DE120019
:10050000010E226E060E236E0A0E046E1BC000F052
:1005100070DE300E0024246E88DE010E226E070E7F
:10052000236E0A0E046E1BC000F063DE08C000F0EC
:10053000300E0024246E79DE010E226E090E236E29
:100540000A0E046E19C000F054DE300E0024246E32
:100550006CDE010E226E0A0E236E0A0E046E19C0A6
:1005600000F047DE08C000F0300E0024246E5DDE8F
:10057000010E226E0F0E236E300E1A24246E55DEED
:10058000020E226E060E236E0A0E046E16C000F0D6
:1005900030DE300E0024246E48DE020E226E070E7E
:1005A000236E0A0E046E16C000F023DE08C000F0B1
:1005B000300E0024246E39DE020E226E090E236EE8
:1005C0000A0E046E15C000F014DE300E0024246EF6
:1005D0002CDE020E226E0A0E236E0A0E046E15C069
:1005E00000F007DE08C000F0300E0024246E1DDE8F
:1005F000020E226E0C0E236E0A0E046E18C000F05E
:10060000F8DD300E0024246E10DE020E226E0D0E78
:10061000236E0A0E046E18C000F0EBDD08C000F077
:0A062000300E0024246E01DE1200EB
:10062A00F2DDD00E226E5EDD020E226E5BDDEBDDA8
:10063A00D10E226E57DD010E226E000E236E5FDE92
:10064A0000C018F0010E226E000E236E58DE00C0A4
:10065A0015F0010E226E000E236E51DE00C016F058
:10066A00010E226E000E236E4ADE00C01BF0226AC3
:0C067A00236A45DE00C019F09FDD12006D
:10068600F00E1814026E02C000F00032009E003216
:10069600009E0032009E0032009E0A0E0002F3CF3A
:1006A60001F00F0E1814006E00500124186EF00EA3
:1006B6001514026E02C000F00032009E0032009E49
:1006C6000032009E0032009E0A0E0002F3CF01F0B7
:1006D6000F0E1514006E00500124156EF00E161440
:1006E600026E02C000F00032009E0032009E003210
:1006F600009E0032009E0A0E0002F3CF01F00F0E9C
:100706001614006E00500124166EC00E1B141A6ECD
:10071600060E006E005004E01A321A9EFF0FFBD739
:10072600300E1B14026E02C000F00032009E003232
:10073600009E0032009E0032009E0A0E0002F3CF99
:1007460001F00F0E1B14006E005001241B6E100EDC
:100756001914026E02C000F00032009E0032009EA4
:100766000032009E0032009E0A0E0002F3CF01F016
:0E0776000F0E1914006E00500124196E1200AF
:10078400060E0B6E130E0C6EAD0E0D6E0D2EFED7F7
:100794000C2EFCD70B2EFAD70000000042DE43DFFC
:0807A40070DFACDEFCD7FFD7CB
:020000040030CA
:0D000100021F1EFF8381FF0FC00FE00F40A4
:00000001FF
