:100000003FEF03F00000000000EF00F000000000F0
:0A0010000000000000000000F3D71C
:10001C000F0E0C6E470E0D6E0D2EFED70C2EFCD750
:06002C00000000001200BC
:0A003200210E0D6E0D2EFED71200F8
:06003C00000000001200AC
:100042000FEE82F0EF50EFCF00F0009800C0EFFF0C
:0200520012009A
:100054000FEE82F0EF50EFCF00F0009600C0EFFFFC
:02006400120088
:1000660078BE02D0819601D0818678BC02D0819478
:1000760001D0818478BA02D0819201D0818278B889
:1000860002D0819001D0818034B002D0818801D025
:100096008198818AD0DF819A78B602D0819601D084
:1000A600818678B402D0819401D0818478B202D05E
:1000B600819201D0818278B002D0819001D0818076
:1000C60034B002D0818801D08198818AB4DF819AC8
:0C00D60034A002D0A0DF01D0A9DF12008E
:0C00E200349073C078F0BEDF3480120050
:1000EE009488A5DFA4DF9486A2DFA1DFA3DF949816
:0A00FE009EDF9DDFA8DF949612003C
:10010800010E746E800E756E000E766E000E7618F7
:1001180002E1000E75182EE08DDF8CDF8BDF8ADFA1
:1001280095DF949687DF86DF75507314016E000E95
:100138007614026E000E021802E1000E011802E0A9
:10014800948802D07ADF949875DF74DF94863492AD
:1001580082B604D034A201D001D0FAD775C000F01D
:1001680076C001F001320032019E00C075F001C076
:1001780076F0CCD7746A5EDF5DDF68DF94965ADF6D
:1001880059DF948857DF56DF55DF54DF9486349261
:1001980082B604D034A201D001D0FAD7746A4ADFFB
:1001A80049DF82B8748046DF45DF44DF43DF42DF42
:1001B80041DF40DF3FDF3EDF3DDF3CDF3BDF3ADF53
:1001C80039DF38DF37DF42DF949637DF949874C021
:0401D80000F0120021
:0E01DC00ACB202D00000FCD773C0ADFF120021
:1001EA002BDF949826DF25DF9486349282B604D0DA
:1001FA0034A201D001D0FAD71CDF1BDF1ADF19DFC6
:10020A0018DF17DF16DF15DF948813DF12DF1200FD
:10021A00756A800E766E000E776E000E771802E110
:10022A00000E761819E005DF04DF948802DF01DF8B
:10023A009486349282B604D034A201D001D0FAD77F
:10024A0082A802D076507512F4DEF3DEFEDE9496B2
:10025A0077327632779EE1D79488EBDEEADE000EBB
:10026A00741802E1000E731802E0E6DE9498E1DEEB
:10027A00E0DE9486349282B604D034A201D001D052
:10028A00FAD7D7DED6DEE1DE9496D3DED2DED4DE2E
:08029A00949875C000F01200F9
:1002A200040E016E6EC000F0015004E00032009EA8
:1002B200FF0FFBD7300E0024026E02C000F01200C6
:1002C200939A93989390939293949396819A819808
:1002D2008196819481928190A0DE9FDE9EDE818252
:1002E2008180818AAADE819A98DE818AA6DE819A3D
:1002F20094DE818AA2DE819A90DE8190818A9DDEDF
:10030200819A8BDE818A99DE819A81928186818AA5
:1003120094DE819A82DE81968180818A8EDE819A44
:100322008190818A8ADE819A78DE818A86DE819A4C
:100332008180818A82DE819A70DE8190818A7DDE6F
:10034200819A8186818481828180818A76DE819A06
:0603520064DE348012009D
:10035800DC0E3A6E010E3B6E730E3C6E000E3D6E67
:10036800FF0E3E6EFF0E3F6E000E406E000E416E99
:10037800FF0E306EFF0E316E000E326E000E336EC1
:10038800FF0E356EFF0E366E000E376E000E386E9D
:10039800AC8A900EAB6E948E949C9EAA03D0AECF7E
:0603A80000F0FBD712007B
:1003AE006E50010A03E1800E6E6E14D06E50020A7A
:1003BE0003E1C00E6E6E0ED06E50030A03E1940E72
:1003CE006E6E08D06E50040A03E1D40E6E6E02D02B
:1003DE00800E6E6E6F04006E6E50002600C06EF0C2
:1003EE0000C078F039DE3490726A72507024E96E73
:1003FE00000E7120EA6EEE50000A0BE0725070246F
:10040E00E96E000E7120EA6EEECF73F063DE722A93
:06041E00ECD7348012004F
:10042400706A6EC0E9FF6FC0EAFFEECF71F07150E1
:10043400000A0DE071C073F0CFDE702A70506E2494
:10044400E96E000E6F20EA6EEECF71F0F0D7120065
:100454004CDED00E736E56DE6EC073F053DE45DE96
:10046400D10E736E4FDE736A746AD5DE00C06FF00E
:08047400BADE6FC000F01200B7
:10047C0094889486349282B604D034A201D001D0F0
:04048C00FAD7120089
:100490000F0E6E14006E300E0024016E01C000F0CD
:0204A000120048
:1004A200300E226E300E236E3A0E246E300E256E02
:1004B200300E266E3A0E276E300E286E300E296EE2
:1004C2002A6A300E156E300E166E2F0E176E300E13
:1004D200186E300E196E2F0E1A6E300E1B6E300E05
:1004E2001C6E1D6A936AFF0E816EFF0E936EFF0EE5
:1004F200C16EFF0EB46EC1DFB886B06ACF0EAF6EAA
:10050200AC8429DF020E0B6E040E0C6EBA0E0D6E59
:100512000D2EFED70C2EFCD70B2EFAD70000D0DE04
:10052200010E786E9FDD0C0E786E9CDD010E6E6EF4
:10053200010E6F6E440E686E610E696E740E6A6E05
:10054200650E6B6E3A0E6C6E6D6A680E706E000E02
:10055200716E2CDF020E6E6E010E6F6E540E686E9F
:10056200690E696E6D0E6A6E650E6B6E3A0E6C6E7A
:0E0572006D6A680E706E000E716E18DF12005A
:0C058000DE5003E0E66EC0EF02F0120057
:10058C0068C06EF069C06FF047DF0D0E736E20DE31
:08059C000A0E736E1DDE120051
:1005A400020E6E6E060E6F6E220E706E000E716E6F
:1005B400FCDE010E6E6E060E6F6E150E706E000E72
:0605C400716EF3DE12006F
:1005CA006E6A43DF00C039F0010E6E6E3EDF00C076
:1005DA0021F0020E6E6E39DF00C020F0040E6E6E3E
:1005EA0034DF00C02DF0050E6E6E2FDF00C02EF036
:1005FA00060E6E6E2ADF00C02FF020C06EF04CDEB1
:10060A0000C022F020C06EF03EDF00C023F021C0FF
:10061A006EF042DE00C025F021C06EF034DF00C06B
:10062A0026F039C06EF038DE00C028F039C06EF00E
:10063A002ADF00C029F02DC06EF02EDE00C015F0B2
:10064A002DC06EF020DF00C016F02EC06EF024DE42
:10065A0000C018F02EC06EF016DF00C019F02FC0CF
:10066A006EF01ADE00C01BF02FC06EF00CDF00C067
:04067A001CF012005E
:10067E00060E0B6E130E0C6EAD0E0D6E0D2EFED7FE
:10068E000C2EFCD70B2EFAD70000000003DF96DFEE
:10069E0082DF420EE16E000EE26E440EE66E610ED9
:1006AE00E66E740EE66E650EE66E3A0EE66E200E81
:1006BE00E66E150ED96E000EDA6E5BDF200EE66E5C
:1006CE002A0EE66E2A0EE66E2A0EE66E200EE66EF6
:1006DE00540EE66E690EE66E6D0EE66E650EE66EF5
:1006EE003A0EE66E200EE66E220ED96E000EDA6E11
:1006FE0040DFE66A420E686E000E696E40DF020E43
:10070E000B6E040E0C6EBA0E0D6E0D2EFED70C2E49
:0C071E00FCD70B2EFAD70000BAD7FFD78B
:020000040030CA
:0D000100021F1EFF8381FF0FC00FE00F40A4
:00000001FF
