:10000000D0EF02F00000000000EF00F00000000060
:0A0010000000000000000000F3D71C
:06001C00000000001200CC
:0A002200210E0D6E0D2EFED7120008
:10002C000F0E0C6E470E0D6E0D2EFED70C2EFCD740
:06003C00000000001200AC
:100042000FEE82F0EF50EFCF00F0009600C0EFFF0E
:0200520012009A
:100054000FEE82F0EF50EFCF00F0009800C0EFFFFA
:02006400120088
:1000660042BE02D0819601D0818642BC02D08194E4
:1000760001D0818442BA02D0819201D0818242B8F5
:1000860002D0819001D081801BB202D0818801D03C
:100096008198818AC0DF819A42B602D0819601D0CA
:1000A600818642B402D0819401D0818442B202D0CA
:1000B600819201D0818242B002D0819001D08180AC
:1000C6001BB202D0818801D08198818AA4DF819AEF
:0C00D6001BA202D0A8DF01D0A1DF1200A5
:1000E20094889BDF9ADF948698DF97DFB2DF94983B
:0A00F20094DF93DFA5DF949612005F
:1000FC00ABDF94988DDF8CDF94861B9082B604D096
:10010C001BA001D001D0FAD783DF82DF81DF80DF33
:10011C007FDF7EDF7DDF7CDF94887ADF79DF120082
:10012C00010E3E6E800E3F6E000E406E000E4018AB
:10013C0002E1000E3F182EE06BDF6ADF69DF68DF3B
:10014C007ADF949665DF64DF3F503D14016E000E3C
:10015C004014026E000E021802E1000E011802E0BB
:10016C00948802D071DF949853DF52DF94861B90F1
:10017C0082B604D01BA001D001D0FAD73FC000F04A
:10018C0040C001F001320032019E00C03FF001C0BE
:10019C0040F0CCD73E6A3CDF3BDF4DDF949638DF36
:1001AC0037DF948835DF34DF33DF32DF94861B9002
:1001BC0082B604D01BA001D001D0FAD73E6A28DF4A
:1001CC0027DF82B83E8024DF23DF22DF21DF20DF20
:1001DC001FDF1EDF1DDF1CDF1BDF1ADF19DF18DF3F
:1001EC0017DF16DF15DF27DF94962EDF94983EC0BD
:0401FC0000F01200FD
:100200003F6A800E406E000E416E000E411802E102
:10021000000E401819E002DF01DF9488FFDEFEDEE9
:1002200094861B9082B604D01BA001D001D0FAD7CF
:1002300082A802D040503F12F1DEF0DE02DF949639
:1002400041324032419EE1D79488E8DEE7DE000E7D
:100250003E1802E1000E3D1802E0FCDE9498DEDE5E
:10026000DDDE94861B9082B604D01BA001D001D0A5
:10027000FAD7D4DED3DEE5DE9496D0DECFDEEADE3A
:0802800094983FC000F0120049
:0C0288001B923DC042F0EBDE1B82120016
:10029400939A93989390939293949396819A819836
:1002A4008196819481928190BFDEBEDEBDDE818223
:1002B4008180818AB1DE819AB7DE818AADDE819A3E
:1002C400B3DE818AA9DE819AAFDE8190818AA4DEC1
:1002D400819AAADE818AA0DE819A81928186818AAE
:1002E4009BDE819AA1DE81968180818A95DE819A46
:1002F4008190818A91DE819A97DE818A8DDE819A4E
:100304008180818A89DE819A8FDE8190818A84DE70
:10031400819A8186818481828180818A7DDE819A2D
:0603240083DE1B821200C3
:10032A003850010A03E1800E386E14D03850020AA0
:10033A0003E1C00E386E0ED03850030A03E1940E62
:10034A00386E08D03850040A03E1D40E386E02D051
:10035A00800E386E3904006E3850002600C038F01E
:10036A0000C042F07BDE1B923C6A3C503A24E96EA4
:10037A00000E3B20EA6EEE50000A0BE03C503A2495
:10038A00E96E000E3B20EA6EEECF3DF078DF3C2AA4
:06039A00ECD71B821200EB
:1003A000040E016E38C000F0015004E00032009EDF
:1003B000FF0FFBD7300E0024026E02C000F01200C7
:1003C0000F0E3814006E300E0024016E01C000F0D4
:0203D000120019
:1003D200948894861B9082B604D01BA001D001D0D1
:0403E200FAD7120034
:1003E6007DDED00E3D6E9FDE38C03DF09CDE76DEB3
:1003F600D10E3D6E98DE3D6A3E6AFFDE00C039F0E2
:080406007ADE39C000F012009B
:10040E00300E1C6E300E1D6E3A0E1E6E300E1F6EAE
:10041E00300E206E3A0E216E300E226E300E236E8E
:10042E00246A300E276E300E286E2F0E296E300E77
:10043E002A6E300E2B6E2F0E2C6E300E2D6E300E51
:10044E002E6E2F6A936AFF0E816EFF0E936EFF0E55
:10045E00C16EFF0EB46EB6DF16DF010E426EFCDD0E
:10046E000C0E426EF9DD010E386E010E396E440E21
:10047E00326E610E336E740E346E650E356E3A0E3C
:10048E00366E376A320E3A6E000E3B6E47DF020E44
:10049E00386E010E396E540E326E690E336E6D0E5D
:1004AE00346E650E356E3A0E366E376A320E3A6E11
:0804BE00000E3B6E33DF12005B
:1004C600020E386E060E396E1C0E3A6E000E3B6E2C
:1004D60029DF010E386E060E396E270E3A6E000EB3
:0604E6003B6E20DF120056
:1004EC00386A7BDF00C018F0010E386E76DF00C072
:1004FC0019F0020E386E71DF00C017F0040E386E62
:10050C006CDF00C015F0050E386E67DF00C016F00A
:10051C00060E386E62DF00C01AF017C038F03ADFF2
:10052C0000C01CF017C038F045DF00C01DF019C02A
:10053C0038F030DF00C01FF019C038F03BDF00C0CE
:10054C0020F018C038F026DF00C022F018C038F0B8
:10055C0031DF00C023F015C038F01CDF00C027F0DD
:10056C0015C038F027DF00C028F016C038F012DFB5
:10057C0000C02AF016C038F01DDF00C02BF01AC0E6
:10058C0038F008DF00C02DF01AC038F013DF00C0BF
:04059C002EF012002B
:1005A000060E0B6E130E0C6EAD0E0D6E0D2EFED7DD
:1005B0000C2EFCD70B2EFAD70000000028DF96DFA8
:1005C00082DF020E0B6E040E0C6EBA0E0D6E0D2E37
:1005D000FED70C2EFCD70B2EFAD70000F0D7FFD792
:020000040030CA
:0D000100021F1EFF8381FF0FC00FE00F40A4
:00000001FF
