:04000000DAEF01F042
:1000080000C017F001C016F002C015F0350E4C6E96
:10001800000E4D6EABD817C000F016C001F015C029
:0400280002F01100D1
:0E002C00000E9EBA010E016E01C000F012001F
:10003A00AECF02F0ABA202D0AB98AB8802C001F0FF
:06004A0001C000F01200ED
:0E005000000EACB2010E016E01C000F01200F5
:0C005E000E0E0D6E0D2EFED700001200DD
:10006A00F250026EF29E0500FF6A0150FE6E0050C9
:08007A00FD6E02BEF28E1200C1
:1000820094948294010E296E2A6A49C024F0495040
:10009200960AFF0ED8A4000E016E4950A90AFF0E5F
:1000A200D8A4000E006E0150001205E0010E49189E
:0800B200246EFF0E2A6E1200FD
:1000BA00FF0E186EFF0E196EFF0E1A6EFF0E1B6EE4
:1000CA003A0E1C6E000E1D6E000E1E6E000E1F6E86
:1000DA002C0E206E000E216E000E226E000E236E74
:1000EA00500E2F6E000E306E000E316E000E326E04
:1000FA00AC8A900EAB6E948E949C9EAA03D0AECF1F
:06010A0000F0FBD712001B
:10011000FF0E256EFF0E266EFF0E276EFF0E286E59
:0C012000C26A070EC012C08EC28012001E
:10012C00C26A070EC012C08E49C000F000360090A3
:10013C00003600900050C212C2808BDFC282C2A275
:10014C0002D00000FCD7C4CF01F0006A00C04AF016
:10015C0001C04BF0C3504A12000E4B12C2904AC061
:08016C0000F04BC001F012008D
:1001740020C000F021C001F076DF0050000A01E148
:1001840016D11CC000F01DC001F06DDF00C033F0BB
:100194002950010A07E13350960A03E1020E296E41
:1001A400346A05D12950020A19E133502418FF0E8C
:1001B400D8A4000E016E3350320AFF0ED8A4000EEC
:1001C400006E0150001207E0030E296E33C02EF0BA
:1001D4003350341A02D0010E296EE9D02950030A93
:1001E4002CE12A50000A09E0400E3314016E01503C
:1001F400000A03E1010E296EDAD033AE13D0040EE7
:10020400296E33C02BF03350341A030E3314016EAD
:1002140001C02CF00150000A02E1050E296E010E06
:100224002D6E0AD0050E4C24E16E000E4D20E26EB8
:10023400FF0EE66E010E296EBAD02950040A31E190
:100244003350A90A0BE1050E4C24E16E000E4D203B
:10025400E26EFF0EE66E010E296EA9D02D502C5CC5
:10026400016E0150000A0EE02D04006E00504C2473
:10027400E16E000E4D20E26E33C0E6FF3350341AB7
:100284002D2A0ED02D04006E00504C24E16E000E79
:100294004D20E26E33C0E6FF050E296E3350341A4A
:1002A40086D02950050A25E1341C026E02C034F0C0
:1002B4000250960AFF0ED8A4000E016E0250A90A3D
:1002C400FF0ED8A4000E006E01500012D8A4342AE8
:1002D4003450331803E1060E296E0AD0050E4C245F
:1002E400E16E000E4D20E26EFF0EE66E010E296EE9
:1002F4005ED02950060A4BE13350A90A3DE1010EB4
:10030400296E040E4C24E16E000E4D20E26EFF0EA9
:10031400E66E030E4C24E16E000E4D20E26E2CC0FE
:10032400E6FF010E2D6E2D502C5C25E32DC001F04F
:10033400020E006E015004E000360090FF0FFBD760
:100344002B50001613E02D04006E00504C24E16E77
:10035400000E4D20E26E00504C24E96E000E4D203C
:10036400EA6E010EEE18006E00C0E6FF2D502C1848
:1003740002E02D2AD8D70AD0050E4C24E16E000ED7
:100384004D20E26EFF0EE66E010E296E10D029504C
:10039400070A0BE1050E4C24E16E000E4D20E26EBF
:1003A400FF0EE66E010E296E02D0010E296E1200B8
:1003B400B886B06ACF0EAF6EAC847DDE020E0B6ED3
:1003C400040E0C6EBA0E0D6E0D2EFED70C2EFCD73D
:1003D4000B2EFAD70000A00E496E51DE97DE9284F0
:1003E4009D8A9D98F28CF28E356A020E496E9CDECF
:0803F40000C035F0FAD7FFD775
:020000040030CA
:0D000100021F1EFF8381FF0FC00FE00F40A4
:00000001FF
