:0400000049EF01F0D3
:0C000800200E2E6E000E2F6E26D8110068
:0E001400000E9EBA010E016E01C000F0120037
:10002200AECF02F0ABA202D0AB98AB8802C001F017
:0600320001C000F0120005
:0E003800000EACB2010E016E01C000F012000D
:10004600F250026EF29E0500FF6A0150FE6E0050ED
:08005600FD6E02BEF28E1200E5
:10005E002AC000F02BC001F0EFDF0050000A01E1D2
:10006E0010D117C000F018C001F0E6DF00C01FF07D
:10007E001650010A07E11F50960A03E1020E166E92
:10008E00156AFFD01650020A0FE11FC01BF0030EB7
:10009E00166E060E2E24E16E000E2F20E26E1FC08D
:1000AE00E6FF1F50151AEDD01650030A32E1800EEE
:1000BE001F14016E0150000A21E11FAC0BD0060E79
:1000CE002E24E16E000E2F20E26E010E1B18006E24
:1000DE0000C0E6FF1FC01EF01F50151A030E1F149E
:1000EE00016E01C01DF00150000A03E1050E166EEF
:1000FE0004D0010E1C6E040E166E0AD0050E2E24B0
:10010E00E16E000E2F20E26EFF0EE66E010E166EF1
:10011E00B8D01650040A2FE11F50A90A0BE1050EA4
:10012E002E24E16E000E2F20E26EFF0EE66E010E03
:10013E00166EA7D01C501D5C006E0EE01C04006EE7
:10014E0000502E24E16E000E2F20E26E1FC0E6FF3F
:10015E001F50151A1C2A0ED01C04006E00502E249F
:10016E00E16E000E2F20E26E1FC0E6FF050E166E2A
:10017E001F50151A86D01650050A25E1151C026E61
:10018E0002C015F00250960AFF0ED8A4000E016EA2
:10019E000250A90AFF0ED8A4000E006E01500012E4
:1001AE00D8A4152A15501F1803E1060E166E0AD094
:1001BE00050E2E24E16E000E2F20E26EFF0EE66E6F
:1001CE00010E166E5ED01650060A4BE11F50A90A9C
:1001DE003DE1010E166E040E2E24E16E000E2F2050
:1001EE00E26EFF0EE66E030E2E24E16E000E2F2041
:1001FE00E26E1DC0E6FF010E1C6E1C501D5C25E359
:10020E001CC001F0020E006E015004E0003600909A
:10021E00FF0FFBD71E50001613E01C04006E00509B
:10022E002E24E16E000E2F20E26E00502E24E96E79
:10023E00000E2F20EA6E010EEE18006E00C0E6FFD3
:10024E001C501D1802E01C2AD8D70AD0050E2E24E9
:10025E00E16E000E2F20E26EFF0EE66E010E166EA0
:10026E0010D01650070A0BE1050E2E24E16E000E7B
:10027E002F20E26EFF0EE66E010E166E02D0010EFC
:04028E00166E1200D6
:10029200020E0B6E040E0C6EBA0E0D6E0D2EFED7F4
:0C02A2000C2EFCD70B2EFAD70000FFD763
:020000040030CA
:0D000100021F1EFF8381FF0FC00FE00F40A4
:00000001FF
