:10000000EEEF00F00000000000EF00F00000000044
:0A0010000000000000000000F3D71C
:0C001C000E0E0D6E0D2EFED7000012001F
:0E002800ACB202D00000FCD73FC0ADFF12000A
:10003600086A096A100E0C6E013408360936045037
:10004600085E0550D8A0053C095ED8B007D004501C
:1000560008260550D8B0053C0926D890003601364A
:060066000C2EEAD7120087
:10006C00C26A070EC012C08E39C000F00036009074
:10007C00003600900050C212C280CADFC282C2A2F7
:10008C0002D00000FCD7C4CF01F0006A00C03AF0E7
:10009C0001C03BF0C3503A12000E3B12C2903AC062
:0800AC0000F03BC001F012005E
:1000B400FF0E156EFF0E166EFF0E176EFF0E186EF6
:0C00C400C26A070EC012C08EC28012007B
:1000D000280E296E000E2A6E3F0E2B6E000E2C6E1F
:1000E000FF0E256EFF0E266E000E276E000E286E88
:1000F000FF0E2D6EFF0E2E6E000E2F6E000E306E58
:10010000FF0E216EFF0E226E000E236E000E246E77
:10011000AC8A900EAB6E948E949C9EAA03D0AECF08
:0601200000F0FBD7120005
:100126003B6A39C0E9FF3AC0EAFFEECF3CF03C50EB
:10013600000A0DE03CC03FF074DF3B2A3B503924F7
:10014600E96E000E3A20EA6EEECF3CF0F0D71200D0
:100156003BC0E1FF3CC0E2FF200EE66E200EE66EDD
:10016600200EE66E200EE66E300EE66EE66A040E91
:100176003B243D6E000E3C203E6E000E3A1802E116
:10018600000E391827E00A0E046E000E056E39C0FF
:1001960000F03AC001F04CDF08C000F009C001F0E1
:1001A600300E00263DC0E1FF3EC0E2FF00C0E6FF84
:1001B6000A0E046E000E056E39C000F03AC001F05A
:1001C60037DF00C039F001C03AF0010E3D5E000E87
:0601D6003E5AD3D71200CF
:1001DC00B886B06ACF0EAF6EAC8474DF020E0B6EB5
:1001EC00040E0C6EBA0E0D6E0D2EFED70C2EFCD717
:1001FC000B2EFAD70000520E316E650E326E610E68
:10020C00336E640E346E790E356E790E366E790E51
:10021C00376E386A310E396E000E3A6E7EDF44DF6F
:10022C00070EB4120C0EC1129284936A946A020ED9
:10023C00396E16DF00C01FF001C020F000C039F08D
:10024C0001C03AF0190E3B6E000E3C6E7EDF190EAB
:10025C00396E000E3A6E61DF81928184020E0B6E54
:10026C00040E0C6EBA0E0D6E0D2EFED70C2EFCD796
:10027C000B2EFAD70000818281940B0E0B6E260E8A
:10028C000C6E5D0E0D6E0D2EFED70C2EFCD70B2EAC
:0A029C00FAD700000000CBD7FFD70F
:020000040030CA
:0D000100021F1EFF8381FF0FC00FE00F40A4
:00000001FF
