:04000000A6EF01F076
:1000080000C016F001C015F02E0E476E000E486EA7
:1000180079D80CD8005205E010D800C044F0FF0E83
:0C002800456E16C000F015C001F011007C
:0E003400000E9EBA010E016E01C000F0120017
:10004200AECF02F0ABA202D0AB98AB8802C001F0F7
:0600520001C000F01200E5
:0E005800000EACB2010E016E01C000F01200ED
:10006600F250026EF29E0500FF6A0150FE6E0050CD
:08007600FD6E02BEF28E1200C5
:10007E00FF0E236EFF0E246EFF0E256EFF0E266EF4
:10008E00420E176E000E186E000E196E000E1A6ECE
:10009E00340E1B6E000E1C6E000E1D6E000E1E6EBC
:1000AE00580E1F6E000E206E000E216E000E226E78
:1000BE00AC8A900EAB6E948E949C9EAA03D0AECF5B
:0600CE0000F0FBD7120058
:1000D40094948294010E276E286A46C029F04650F3
:1000E400960AFF0ED8A4000E016E4650A90AFF0E10
:1000F400D8A4000E006E0150001205E0010E46184F
:08010400296EFF0E286E1200A7
:10010C001BC000F01CC001F0A8DF0050000A01E188
:10011C0016D117C000F018C001F09FDF00C042F0EC
:10012C002750010A07E14250960A03E1020E276E9E
:10013C00436A05D12750020A19E142502918FF0ED3
:10014C00D8A4000E016E4250320AFF0ED8A4000E45
:10015C00006E0150001207E0030E276E42C02DF016
:10016C004250431A02D0010E276EE9D02750030AE1
:10017C002CE12850000A09E0400E4214016E015097
:10018C00000A03E1010E276EDAD042AE13D0040E42
:10019C00276E42C02AF04250431A030E4214016EDD
:1001AC0001C02BF00150000A02E1050E276E010E72
:1001BC002C6E0AD0050E4724E16E000E4820E26E2C
:1001CC00FF0EE66E010E276EBAD02750040A31E1FD
:1001DC004250A90A0BE1050E4724E16E000E48209F
:1001EC00E26EFF0EE66E010E276EA9D02C502B5C32
:1001FC00016E0150000A0EE02C04006E00504724E2
:10020C00E16E000E4820E26E42C0E6FF4250431AF7
:10021C002C2A0ED02C04006E00504724E16E000EE8
:10022C004820E26E42C0E6FF050E276E4250431A8C
:10023C0086D02750050A25E1431C026E02C043F00C
:10024C000250960AFF0ED8A4000E016E0250A90AA5
:10025C00FF0ED8A4000E006E01500012D8A4432A41
:10026C004350421803E1060E276E0AD0050E4724B0
:10027C00E16E000E4820E26EFF0EE66E010E276E58
:10028C005ED02750060A4BE14250A90A3DE1010E0F
:10029C00276E040E4724E16E000E4820E26EFF0E1E
:1002AC00E66E030E4724E16E000E4820E26E2BC072
:1002BC00E6FF010E2C6E2C502B5C25E32CC001F0BC
:1002CC00020E006E015004E000360090FF0FFBD7C9
:1002DC002A50001613E02C04006E00504724E16EE7
:1002EC00000E4820E26E00504724E96E000E4820B4
:1002FC00EA6E010EEE18006E00C0E6FF2C502B18B3
:10030C0002E02C2AD8D70AD0050E4724E16E000E45
:10031C004820E26EFF0EE66E010E276E10D02750BD
:10032C00070A0BE1050E4724E16E000E4820E26E31
:10033C00FF0EE66E010E276E02D0010E276E120024
:10034C00B886B06ACF0EAF6EAC8493DE020E0B6E25
:10035C00040E0C6EBA0E0D6E0D2EFED70C2EFCD7A5
:10036C000B2EFAD70000A00E466EAEDE936AFF0E7F
:10037C00456E010E446E9D8A9D98F28CF28E45520C
:10038C0023E0456A4450010A10E181800B0E0B6E8C
:10039C00260E0C6E5D0E0D6E0D2EFED70C2EFCD7A0
:1003AC000B2EFAD7000000000FD081900B0E0B6EB5
:1003BC00260E0C6E5D0E0D6E0D2EFED70C2EFCD780
:0C03CC000B2EFAD700000000DAD7FFD794
:020000040030CA
:0D000100021F1EFF8381FF0FC00FE00F40A4
:00000001FF
