:10000000EBEF00F00000000000EF00F00000000047
:0A0010000000000000000000F3D71C
:06001C00000000001200CC
:100022000F0E0C6E470E0D6E0D2EFED70C2EFCD74A
:06003200000000001200B6
:0A003800210E0D6E0D2EFED71200F2
:1000420020BE02D0819A01D0818A20BC02D0819840
:1000520001D0818820BA02D0819601D0818620B851
:1000620002D0819401D0818415B002D0818001D068
:1000720081908182D2DF819220B602D0819A01D012
:10008200818A20B402D0819801D0818820B202D026
:10009200819601D0818620B002D0819401D08184E2
:1000A20015B002D0818001D081908182B6DF819229
:0C00B20015A002D0B5DF01D0BEDF1200A7
:0C00BE0015901FC020F0BEDF158012005E
:1000CA0093929390939493969398939A8192819012
:1000DA00819A8198819681949FDF9EDF9DDF818638
:1000EA008184818296DF819297DF818292DF819279
:1000FA0093DF81828EDF81928FDF8194818289DF13
:10010A0081928ADF818285DF81928196818A8182CA
:10011A0080DF819281DF819A818481827ADF819274
:10012A008194818276DF819277DF818272DF819288
:10013A00818481826EDF81926FDF8194818269DF9F
:10014A008192818A818881868184818262DF81921B
:06015A0063DF15801200B6
:100160001A50010A03E1800E1A6E14D01A50020AC6
:1001700003E1C00E1A6E0ED01A50030A03E1940E6A
:100180001A6E08D01A50040A03E1D40E1A6E02D077
:10019000800E1A6E1B04006E1A50002600C01AF062
:1001A00000C020F04EDF15901E6A1E501C24E96E20
:1001B000000E1D20EA6EEE50000A0BE01E501C24BB
:1001C000E96E000E1D20EA6EEECF1FF078DF1E2ACA
:0601D000ECD715801200BF
:1001D60079DF010E1A6E010E1B6E410E166E6C0E45
:1001E600176E690E186E196A160E1C6E000E1D6EBD
:0401F600B4DFFFD79C
:020000040030CA
:0D000100021F1EFF8381FF0FC00FE00F40A4
:00000001FF
