:10000000EBEF00F00000000000EF00F00000000047
:0A0010000000000000000000F3D71C
:06001C00000000001200CC
:100022000F0E0C6E470E0D6E0D2EFED70C2EFCD74A
:06003200000000001200B6
:0A003800210E0D6E0D2EFED71200F2
:1000420048BE02D0809601D0808648BC02D08094FF
:1000520001D0808448BA02D0809201D0808248B810
:1000620002D0809001D0808039B002D0818801D046
:100072008198818AD2DF819A48B602D0809601D0D7
:10008200808648B402D0809401D0808448B202D0E5
:10009200809201D0808248B002D0809001D08080CE
:1000A20039B002D0818801D08198818AB6DF819AE5
:0C00B20039A002D0B5DF01D0BEDF120083
:0C00BE00399047C048F0BEDF39801200C6
:1000CA00939A93989290929292949296819A819806
:1000DA0080968094809280909FDF9EDF9DDF808251
:1000EA008080818A96DF819A97DF818A92DF819A5E
:1000FA0093DF818A8EDF819A8FDF8090818A89DF00
:10010A00819A8ADF818A85DF819A80928086818AB4
:10011A0080DF819A81DF80968080818A7ADF819A66
:10012A008090818A76DF819A77DF818A72DF819A6D
:10013A008080818A6EDF819A6FDF8090818A69DF91
:10014A00819A8086808480828080818A62DF819A17
:06015A0063DF3980120092
:100160004250010A03E1800E426E14D04250020A4E
:1001700003E1C00E426E0ED04250030A03E1940E1A
:10018000426E08D04250040A03E1D40E426E02D0FF
:10019000800E426E4304006E4250002600C042F0C2
:1001A00000C048F04EDF3990466A46504424E96E5C
:1001B000000E4520EA6EEE50000A0BE04650442443
:1001C000E96E000E4520EA6EEECF47F078DF462A52
:0601D000ECD7398012009B
:1001D600936AFF0E816EFF0E936EFF0EC16E6D0E5B
:1001E6001F6E690E206E6B0E216E720E226E6F0EE2
:1001F600236E450E246E6C0E256E650E266E6B0EF6
:10020600276E740E286E720E296E6F0E2A6E6E0E93
:100216002B6E690E2C6E6B0E2D6E610E2E6E2F6A76
:10022600450E156E610E166E730E176E790E186EEC
:10023600500E196E490E1A6E430E1B6E360E1C6E4C
:100246001D6A4C0E306E630E316E640E326E340EC5
:10025600336E620E346E690E356E740E366E376A04
:10026600650E3A6E780E3B6E610E3C6E6D0E3D6EFF
:10027600700E3E6E6C0E3F6E650E406E416A22DF5A
:10028600010E486EDBDE0C0E486ED8DE010E426EA5
:10029600060E436E300E446E000E456E5EDF020E95
:1002A600426E060E436E3A0E446E000E456E55DFE4
:1002B600150E0B6E4B0E0C6EBE0E0D6E0D2EFED772
:1002C6000C2EFCD70B2EFAD70000010E486EB6DEB8
:1002D600010E426E010E436E1F0E446E000E456EF9
:1002E6003CDF020E426E050E436E150E446E000E86
:0602F600456E33DFFFD767
:020000040030CA
:0D000100021F1EFF8381FF0FC00FE00F40A4
:00000001FF
